:100000000C942A000C9447000C9447000C94470071
:100010000C9447000C9447000C9447000C94470044
:100020000C9447000C9447000C9447000C94470034
:100030000C9447000C9447000C9447000C94470024
:100040000C9447000C9447000C9447000C94470014
:100050000C94470011241FBECFE5D4E0DEBFCDBF16
:1000600010E0A0E6B0E0E2E0F1E002C005900D9201
:10007000A437B107D9F710E0A4E7B0E001C01D92A2
:10008000A437B107E1F70E9449000C947F000C945B
:1000900000000F931F93DF93CF93CDB7DEB7649724
:1000A0000FB6F894DEBF0FBECDBF8FEF8ABBAE0197
:1000B0004F5F5F4F09E110E0BE01695E7F4FDA01DB
:1000C000E0E6F0E084E101900D928150E1F79A01C1
:1000D000F90180818BBBDA018C918BBB8FEF9FEF95
:1000E000F8013197F1F70197D9F712966A177B0754
:1000F00099F72E5F3F4F6217730751F7E0CFF894DF
:02010000FFCF2F
:100102003F0006005B004F0066006D007D000700A7
:040112007F006F00FB
:00000001FF
